{"abi":[{"type":"constructor","inputs":[{"name":"timeToFinalize","type":"uint256","internalType":"uint256"},{"name":"blocksPerCommitInterval","type":"uint256","internalType":"uint256"},{"name":"commitCooldown","type":"uint32","internalType":"uint32"}],"stateMutability":"nonpayable"},{"type":"function","name":"BLOCKS_PER_COMMIT_INTERVAL","inputs":[],"outputs":[{"name":"","type":"uint256","internalType":"uint256"}],"stateMutability":"view"},{"type":"function","name":"COMMITTER_ROLE","inputs":[],"outputs":[{"name":"","type":"bytes32","internalType":"bytes32"}],"stateMutability":"view"},{"type":"function","name":"COMMIT_COOLDOWN","inputs":[],"outputs":[{"name":"","type":"uint32","internalType":"uint32"}],"stateMutability":"view"},{"type":"function","name":"DEFAULT_ADMIN_ROLE","inputs":[],"outputs":[{"name":"","type":"bytes32","internalType":"bytes32"}],"stateMutability":"view"},{"type":"function","name":"NUM_COMMIT_SLOTS","inputs":[],"outputs":[{"name":"","type":"uint256","internalType":"uint256"}],"stateMutability":"view"},{"type":"function","name":"PAUSER_ROLE","inputs":[],"outputs":[{"name":"","type":"bytes32","internalType":"bytes32"}],"stateMutability":"view"},{"type":"function","name":"TIME_TO_FINALIZE","inputs":[],"outputs":[{"name":"","type":"uint256","internalType":"uint256"}],"stateMutability":"view"},{"type":"function","name":"blockHashAtCommit","inputs":[{"name":"commitHeight","type":"uint256","internalType":"uint256"}],"outputs":[{"name":"","type":"bytes32","internalType":"bytes32"}],"stateMutability":"view"},{"type":"function","name":"commit","inputs":[{"name":"blockHash","type":"bytes32","internalType":"bytes32"},{"name":"commitHeight","type":"uint256","internalType":"uint256"}],"outputs":[],"stateMutability":"nonpayable"},{"type":"function","name":"finalized","inputs":[{"name":"blockHash","type":"bytes32","internalType":"bytes32"},{"name":"blockHeight","type":"uint256","internalType":"uint256"}],"outputs":[{"name":"","type":"bool","internalType":"bool"}],"stateMutability":"view"},{"type":"function","name":"getRoleAdmin","inputs":[{"name":"role","type":"bytes32","internalType":"bytes32"}],"outputs":[{"name":"","type":"bytes32","internalType":"bytes32"}],"stateMutability":"view"},{"type":"function","name":"grantRole","inputs":[{"name":"role","type":"bytes32","internalType":"bytes32"},{"name":"account","type":"address","internalType":"address"}],"outputs":[],"stateMutability":"nonpayable"},{"type":"function","name":"hasRole","inputs":[{"name":"role","type":"bytes32","internalType":"bytes32"},{"name":"account","type":"address","internalType":"address"}],"outputs":[{"name":"","type":"bool","internalType":"bool"}],"stateMutability":"view"},{"type":"function","name":"initialize","inputs":[],"outputs":[],"stateMutability":"nonpayable"},{"type":"function","name":"pause","inputs":[],"outputs":[],"stateMutability":"nonpayable"},{"type":"function","name":"paused","inputs":[],"outputs":[{"name":"","type":"bool","internalType":"bool"}],"stateMutability":"view"},{"type":"function","name":"proxiableUUID","inputs":[],"outputs":[{"name":"","type":"bytes32","internalType":"bytes32"}],"stateMutability":"view"},{"type":"function","name":"renounceRole","inputs":[{"name":"role","type":"bytes32","internalType":"bytes32"},{"name":"account","type":"address","internalType":"address"}],"outputs":[],"stateMutability":"nonpayable"},{"type":"function","name":"revokeRole","inputs":[{"name":"role","type":"bytes32","internalType":"bytes32"},{"name":"account","type":"address","internalType":"address"}],"outputs":[],"stateMutability":"nonpayable"},{"type":"function","name":"supportsInterface","inputs":[{"name":"interfaceId","type":"bytes4","internalType":"bytes4"}],"outputs":[{"name":"","type":"bool","internalType":"bool"}],"stateMutability":"view"},{"type":"function","name":"unpause","inputs":[],"outputs":[],"stateMutability":"nonpayable"},{"type":"function","name":"upgradeTo","inputs":[{"name":"newImplementation","type":"address","internalType":"address"}],"outputs":[],"stateMutability":"nonpayable"},{"type":"function","name":"upgradeToAndCall","inputs":[{"name":"newImplementation","type":"address","internalType":"address"},{"name":"data","type":"bytes","internalType":"bytes"}],"outputs":[],"stateMutability":"payable"},{"type":"event","name":"AdminChanged","inputs":[{"name":"previousAdmin","type":"address","indexed":false,"internalType":"address"},{"name":"newAdmin","type":"address","indexed":false,"internalType":"address"}],"anonymous":false},{"type":"event","name":"BeaconUpgraded","inputs":[{"name":"beacon","type":"address","indexed":true,"internalType":"address"}],"anonymous":false},{"type":"event","name":"CommitSubmitted","inputs":[{"name":"commitHeight","type":"uint256","indexed":true,"internalType":"uint256"},{"name":"blockHash","type":"bytes32","indexed":false,"internalType":"bytes32"}],"anonymous":false},{"type":"event","name":"Initialized","inputs":[{"name":"version","type":"uint8","indexed":false,"internalType":"uint8"}],"anonymous":false},{"type":"event","name":"Paused","inputs":[{"name":"account","type":"address","indexed":false,"internalType":"address"}],"anonymous":false},{"type":"event","name":"RoleAdminChanged","inputs":[{"name":"role","type":"bytes32","indexed":true,"internalType":"bytes32"},{"name":"previousAdminRole","type":"bytes32","indexed":true,"internalType":"bytes32"},{"name":"newAdminRole","type":"bytes32","indexed":true,"internalType":"bytes32"}],"anonymous":false},{"type":"event","name":"RoleGranted","inputs":[{"name":"role","type":"bytes32","indexed":true,"internalType":"bytes32"},{"name":"account","type":"address","indexed":true,"internalType":"address"},{"name":"sender","type":"address","indexed":true,"internalType":"address"}],"anonymous":false},{"type":"event","name":"RoleRevoked","inputs":[{"name":"role","type":"bytes32","indexed":true,"internalType":"bytes32"},{"name":"account","type":"address","indexed":true,"internalType":"address"},{"name":"sender","type":"address","indexed":true,"internalType":"address"}],"anonymous":false},{"type":"event","name":"Unpaused","inputs":[{"name":"account","type":"address","indexed":false,"internalType":"address"}],"anonymous":false},{"type":"event","name":"Upgraded","inputs":[{"name":"implementation","type":"address","indexed":true,"internalType":"address"}],"anonymous":false},{"type":"error","name":"CannotRecommit","inputs":[]},{"type":"error","name":"CommitCooldownTooLarge","inputs":[]},{"type":"error","name":"FinalizationIsGtCooldown","inputs":[]},{"type":"error","name":"TimeToFinalizeTooLarge","inputs":[]},{"type":"error","name":"UnknownBlock","inputs":[]}],"bytecode":{"object":"0x610100604052306080523480156200001657600080fd5b5060405162001b8c38038062001b8c8339810160408190526200003991620001a9565b8063ffffffff168311156200006157604051637f6a9fa960e11b815260040160405180910390fd5b6000620000708360f0620001ed565b9050808411156200009457604051631357825760e01b815260040160405180910390fd5b808263ffffffff161115620000bf57604051600162118fd960e11b0319815260040160405180910390fd5b60c084905263ffffffff821660e05260a0839052620000dd620000e7565b505050506200021b565b600054610100900460ff1615620001545760405162461bcd60e51b815260206004820152602760248201527f496e697469616c697a61626c653a20636f6e747261637420697320696e697469604482015266616c697a696e6760c81b606482015260840160405180910390fd5b60005460ff9081161015620001a7576000805460ff191660ff9081179091556040519081527f7f26b83ff96e1f2b6a682f133852f6798a09c465da95921460cefb38474024989060200160405180910390a15b565b600080600060608486031215620001bf57600080fd5b8351925060208401519150604084015163ffffffff81168114620001e257600080fd5b809150509250925092565b60008160001904831182151516156200021657634e487b7160e01b600052601160045260246000fd5b500290565b60805160a05160c05160e05161190662000286600039600081816103330152610b290152600081816103b10152610a670152600081816102d501526109ed015260008181610598015281816105d80152818161068b015281816106cb015261075a01526119066000f3fe6080604052600436106101405760003560e01c8063735808b7116100b6578063a42747da1161006f578063a42747da1461039f578063c8902398146103d3578063d547741f146103f3578063dc801def14610413578063e63ab1e914610428578063e900ead81461045c57600080fd5b8063735808b7146102c35780638129fc1c146102f75780638456cb591461030c57806384cbff5f1461032157806391d148541461036a578063a217fddf1461038a57600080fd5b806336568abe1161010857806336568abe1461022e5780633659cfe61461024e5780633f4ba83a1461026e5780634f1ef2861461028357806352d1902d146102965780635c975abb146102ab57600080fd5b806301ffc9a7146101455780631a7c3f731461017a578063248a9ca3146101bc5780632f2ff15d146101ec57806331c8b8171461020e575b600080fd5b34801561015157600080fd5b50610165610160366004611445565b61047c565b60405190151581526020015b60405180910390f35b34801561018657600080fd5b506101ae7f0b60b5d7f7e737e4561eecda7c6a01e19e626c495c26e6f45e5b255f76a2010681565b604051908152602001610171565b3480156101c857600080fd5b506101ae6101d736600461146f565b60009081526097602052604090206001015490565b3480156101f857600080fd5b5061020c6102073660046114a4565b6104b3565b005b34801561021a57600080fd5b506101ae61022936600461146f565b6104dd565b34801561023a57600080fd5b5061020c6102493660046114a4565b61050a565b34801561025a57600080fd5b5061020c6102693660046114d0565b61058d565b34801561027a57600080fd5b5061020c61066d565b61020c610291366004611501565b610680565b3480156102a257600080fd5b506101ae61074d565b3480156102b757600080fd5b5060335460ff16610165565b3480156102cf57600080fd5b506101ae7f000000000000000000000000000000000000000000000000000000000000000081565b34801561030357600080fd5b5061020c610800565b34801561031857600080fd5b5061020c61097f565b34801561032d57600080fd5b506103557f000000000000000000000000000000000000000000000000000000000000000081565b60405163ffffffff9091168152602001610171565b34801561037657600080fd5b506101656103853660046114a4565b6109b1565b34801561039657600080fd5b506101ae600081565b3480156103ab57600080fd5b506101ae7f000000000000000000000000000000000000000000000000000000000000000081565b3480156103df57600080fd5b506101656103ee3660046115c3565b6109dc565b3480156103ff57600080fd5b5061020c61040e3660046114a4565b610a9e565b34801561041f57600080fd5b506101ae60f081565b34801561043457600080fd5b506101ae7f65d7a28e3265b37a6474929f336521b332c1681b933f6cb9f3376673440d862a81565b34801561046857600080fd5b5061020c6104773660046115c3565b610ac3565b60006001600160e01b03198216637965db0b60e01b14806104ad57506301ffc9a760e01b6001600160e01b03198316145b92915050565b6000828152609760205260409020600101546104ce81610bd9565b6104d88383610be3565b505050565b60008061012d6104ee60f0856115fb565b60f081106104fe576104fe61160f565b60020201549392505050565b6001600160a01b038116331461057f5760405162461bcd60e51b815260206004820152602f60248201527f416363657373436f6e74726f6c3a2063616e206f6e6c792072656e6f756e636560448201526e103937b632b9903337b91039b2b63360891b60648201526084015b60405180910390fd5b6105898282610c69565b5050565b306001600160a01b037f00000000000000000000000000000000000000000000000000000000000000001614156105d65760405162461bcd60e51b815260040161057690611625565b7f00000000000000000000000000000000000000000000000000000000000000006001600160a01b031661061f60008051602061188a833981519152546001600160a01b031690565b6001600160a01b0316146106455760405162461bcd60e51b815260040161057690611671565b61064e81610cd0565b6040805160008082526020820190925261066a91839190610cdb565b50565b600061067881610bd9565b61066a610e55565b306001600160a01b037f00000000000000000000000000000000000000000000000000000000000000001614156106c95760405162461bcd60e51b815260040161057690611625565b7f00000000000000000000000000000000000000000000000000000000000000006001600160a01b031661071260008051602061188a833981519152546001600160a01b031690565b6001600160a01b0316146107385760405162461bcd60e51b815260040161057690611671565b61074182610cd0565b61058982826001610cdb565b6000306001600160a01b037f000000000000000000000000000000000000000000000000000000000000000016146107ed5760405162461bcd60e51b815260206004820152603860248201527f555550535570677261646561626c653a206d757374206e6f742062652063616c60448201527f6c6564207468726f7567682064656c656761746563616c6c00000000000000006064820152608401610576565b5060008051602061188a83398151915290565b600054610100900460ff16158080156108205750600054600160ff909116105b8061083a5750303b15801561083a575060005460ff166001145b61089d5760405162461bcd60e51b815260206004820152602e60248201527f496e697469616c697a61626c653a20636f6e747261637420697320616c72656160448201526d191e481a5b9a5d1a585b1a5e995960921b6064820152608401610576565b6000805460ff1916600117905580156108c0576000805461ff0019166101001790555b6108c8610ea7565b6108d0610ed8565b6108d8610ed8565b6108e3600033610be3565b61090d7f65d7a28e3265b37a6474929f336521b332c1681b933f6cb9f3376673440d862a33610be3565b6109377f0b60b5d7f7e737e4561eecda7c6a01e19e626c495c26e6f45e5b255f76a2010633610be3565b801561066a576000805461ff0019169055604051600181527f7f26b83ff96e1f2b6a682f133852f6798a09c465da95921460cefb38474024989060200160405180910390a150565b7f65d7a28e3265b37a6474929f336521b332c1681b933f6cb9f3376673440d862a6109a981610bd9565b61066a610eff565b60009182526097602090815260408084206001600160a01b0393909316845291905290205460ff1690565b60006109e6610f3c565b6000610a127f0000000000000000000000000000000000000000000000000000000000000000846116d3565b9050600061012d610a2460f0846115fb565b60f08110610a3457610a3461160f565b6002020180549091508514610a5c576040516379a3cb5f60e01b815260040160405180910390fd5b6001810154610a92907f00000000000000000000000000000000000000000000000000000000000000009063ffffffff166116e7565b42101595945050505050565b600082815260976020526040902060010154610ab981610bd9565b6104d88383610c69565b610acb610f3c565b7f0b60b5d7f7e737e4561eecda7c6a01e19e626c495c26e6f45e5b255f76a20106610af581610bd9565b6000610b0260f0846115fb565b9050600061012d8260f08110610b1a57610b1a61160f565b6002020190504263ffffffff167f00000000000000000000000000000000000000000000000000000000000000008260010160009054906101000a900463ffffffff160163ffffffff161115610b835760405163f9381c6d60e01b815260040160405180910390fd5b84815560018101805463ffffffff19164263ffffffff1617905560405185815284907f1216b936e7a60e132d92c23737227ff7219df68ab525a98fa65f09b655f31e329060200160405180910390a25050505050565b61066a8133610f82565b610bed82826109b1565b6105895760008281526097602090815260408083206001600160a01b03851684529091529020805460ff19166001179055610c253390565b6001600160a01b0316816001600160a01b0316837f2f8788117e7eff1d82e926ec794901d17c78024a50270940304540a733656f0d60405160405180910390a45050565b610c7382826109b1565b156105895760008281526097602090815260408083206001600160a01b0385168085529252808320805460ff1916905551339285917ff6391f5c32d9c69d2a47ea670b442974b53935d1edc7fd64eb21e047a839171b9190a45050565b600061058981610bd9565b7f4910fdfa16fed3260ed0e7147f7cc6da11a60208b5b9406d12a635614ffd91435460ff1615610d0e576104d883610fdb565b826001600160a01b03166352d1902d6040518163ffffffff1660e01b815260040160206040518083038186803b158015610d4757600080fd5b505afa925050508015610d77575060408051601f3d908101601f19168201909252610d74918101906116ff565b60015b610dda5760405162461bcd60e51b815260206004820152602e60248201527f45524331393637557067726164653a206e657720696d706c656d656e7461746960448201526d6f6e206973206e6f74205555505360901b6064820152608401610576565b60008051602061188a8339815191528114610e495760405162461bcd60e51b815260206004820152602960248201527f45524331393637557067726164653a20756e737570706f727465642070726f786044820152681a58589b195555525160ba1b6064820152608401610576565b506104d8838383611077565b610e5d6110a2565b6033805460ff191690557f5db9ee0a495bf2e6ff9c91a7834c1ba4fdd244a5e8aa4e537bd38aeae4b073aa335b6040516001600160a01b03909116815260200160405180910390a1565b600054610100900460ff16610ece5760405162461bcd60e51b815260040161057690611718565b610ed66110eb565b565b600054610100900460ff16610ed65760405162461bcd60e51b815260040161057690611718565b610f07610f3c565b6033805460ff191660011790557f62e78cea01bee320cd4e420270b5ea74000d11b0c9f74754ebdbfc544b05a258610e8a3390565b60335460ff1615610ed65760405162461bcd60e51b815260206004820152601060248201526f14185d5cd8589b194e881c185d5cd95960821b6044820152606401610576565b610f8c82826109b1565b61058957610f998161111e565b610fa4836020611130565b604051602001610fb592919061178f565b60408051601f198184030181529082905262461bcd60e51b825261057691600401611804565b6001600160a01b0381163b6110485760405162461bcd60e51b815260206004820152602d60248201527f455243313936373a206e657720696d706c656d656e746174696f6e206973206e60448201526c1bdd08184818dbdb9d1c9858dd609a1b6064820152608401610576565b60008051602061188a83398151915280546001600160a01b0319166001600160a01b0392909216919091179055565b611080836112d3565b60008251118061108d5750805b156104d85761109c8383611313565b50505050565b60335460ff16610ed65760405162461bcd60e51b815260206004820152601460248201527314185d5cd8589b194e881b9bdd081c185d5cd95960621b6044820152606401610576565b600054610100900460ff166111125760405162461bcd60e51b815260040161057690611718565b6033805460ff19169055565b60606104ad6001600160a01b03831660145b6060600061113f836002611837565b61114a9060026116e7565b67ffffffffffffffff811115611162576111626114eb565b6040519080825280601f01601f19166020018201604052801561118c576020820181803683370190505b509050600360fc1b816000815181106111a7576111a761160f565b60200101906001600160f81b031916908160001a905350600f60fb1b816001815181106111d6576111d661160f565b60200101906001600160f81b031916908160001a90535060006111fa846002611837565b6112059060016116e7565b90505b600181111561127d576f181899199a1a9b1b9c1cb0b131b232b360811b85600f16601081106112395761123961160f565b1a60f81b82828151811061124f5761124f61160f565b60200101906001600160f81b031916908160001a90535060049490941c9361127681611856565b9050611208565b5083156112cc5760405162461bcd60e51b815260206004820181905260248201527f537472696e67733a20686578206c656e67746820696e73756666696369656e746044820152606401610576565b9392505050565b6112dc81610fdb565b6040516001600160a01b038216907fbc7cd75a20ee27fd9adebab32041f755214dbc6bffa90cc0225b39da2e5c2d3b90600090a250565b60606001600160a01b0383163b61137b5760405162461bcd60e51b815260206004820152602660248201527f416464726573733a2064656c65676174652063616c6c20746f206e6f6e2d636f6044820152651b9d1c9858dd60d21b6064820152608401610576565b600080846001600160a01b031684604051611396919061186d565b600060405180830381855af49150503d80600081146113d1576040519150601f19603f3d011682016040523d82523d6000602084013e6113d6565b606091505b50915091506113fe82826040518060600160405280602781526020016118aa60279139611407565b95945050505050565b606083156114165750816112cc565b6112cc838381511561142b5781518083602001fd5b8060405162461bcd60e51b81526004016105769190611804565b60006020828403121561145757600080fd5b81356001600160e01b0319811681146112cc57600080fd5b60006020828403121561148157600080fd5b5035919050565b80356001600160a01b038116811461149f57600080fd5b919050565b600080604083850312156114b757600080fd5b823591506114c760208401611488565b90509250929050565b6000602082840312156114e257600080fd5b6112cc82611488565b634e487b7160e01b600052604160045260246000fd5b6000806040838503121561151457600080fd5b61151d83611488565b9150602083013567ffffffffffffffff8082111561153a57600080fd5b818501915085601f83011261154e57600080fd5b813581811115611560576115606114eb565b604051601f8201601f19908116603f01168101908382118183101715611588576115886114eb565b816040528281528860208487010111156115a157600080fd5b8260208601602083013760006020848301015280955050505050509250929050565b600080604083850312156115d657600080fd5b50508035926020909101359150565b634e487b7160e01b600052601260045260246000fd5b60008261160a5761160a6115e5565b500690565b634e487b7160e01b600052603260045260246000fd5b6020808252602c908201527f46756e6374696f6e206d7573742062652063616c6c6564207468726f7567682060408201526b19195b1959d85d1958d85b1b60a21b606082015260800190565b6020808252602c908201527f46756e6374696f6e206d7573742062652063616c6c6564207468726f7567682060408201526b6163746976652070726f787960a01b606082015260800190565b634e487b7160e01b600052601160045260246000fd5b6000826116e2576116e26115e5565b500490565b600082198211156116fa576116fa6116bd565b500190565b60006020828403121561171157600080fd5b5051919050565b6020808252602b908201527f496e697469616c697a61626c653a20636f6e7472616374206973206e6f74206960408201526a6e697469616c697a696e6760a81b606082015260800190565b60005b8381101561177e578181015183820152602001611766565b8381111561109c5750506000910152565b7f416363657373436f6e74726f6c3a206163636f756e74200000000000000000008152600083516117c7816017850160208801611763565b7001034b99036b4b9b9b4b733903937b6329607d1b60179184019182015283516117f8816028840160208801611763565b01602801949350505050565b6020815260008251806020840152611823816040850160208701611763565b601f01601f19169190910160400192915050565b6000816000190483118215151615611851576118516116bd565b500290565b600081611865576118656116bd565b506000190190565b6000825161187f818460208701611763565b919091019291505056fe360894a13ba1a3210667c828492db98dca3e2076cc3735a920a3ca505d382bbc416464726573733a206c6f772d6c6576656c2064656c65676174652063616c6c206661696c6564a2646970667358221220d17c95006f9b60d90c223d632f8d7875c9eb9a0c2059abb29dfc9c664fbd309d64736f6c63430008090033","linkReferences":{}},"methodIdentifiers":{"BLOCKS_PER_COMMIT_INTERVAL()":"735808b7","COMMITTER_ROLE()":"1a7c3f73","COMMIT_COOLDOWN()":"84cbff5f","DEFAULT_ADMIN_ROLE()":"a217fddf","NUM_COMMIT_SLOTS()":"dc801def","PAUSER_ROLE()":"e63ab1e9","TIME_TO_FINALIZE()":"a42747da","blockHashAtCommit(uint256)":"31c8b817","commit(bytes32,uint256)":"e900ead8","finalized(bytes32,uint256)":"c8902398","getRoleAdmin(bytes32)":"248a9ca3","grantRole(bytes32,address)":"2f2ff15d","hasRole(bytes32,address)":"91d14854","initialize()":"8129fc1c","pause()":"8456cb59","paused()":"5c975abb","proxiableUUID()":"52d1902d","renounceRole(bytes32,address)":"36568abe","revokeRole(bytes32,address)":"d547741f","supportsInterface(bytes4)":"01ffc9a7","unpause()":"3f4ba83a","upgradeTo(address)":"3659cfe6","upgradeToAndCall(address,bytes)":"4f1ef286"},"id":16}