{"abi":[{"type":"function","name":"CONTRACT_MESSAGE_PREDICATE","inputs":[],"outputs":[{"name":"","type":"bytes32","internalType":"bytes32"}],"stateMutability":"view"}],"bytecode":{"object":"0x60a6610038600b82828239805160001a607314602b57634e487b7160e01b600052600060045260246000fd5b30600052607381538281f3fe730000000000000000000000000000000000000000301460806040526004361060335760003560e01c8063105b5ed8146038575b600080fd5b605e7fe821b978bcce9abbf40c3e50ea30143e68c65fa95b9da8907fef59c02d954cec81565b60405190815260200160405180910390f3fea2646970667358221220507a4f44fe69d66cfd8592990c3c696c70909581d7f34538641ff8cee56a56c564736f6c63430008090033","linkReferences":{}},"methodIdentifiers":{"CONTRACT_MESSAGE_PREDICATE()":"105b5ed8"},"id":17}